{
    "abi": [
        {
            "type": "constructor",
            "inputs": [],
            "stateMutability": "nonpayable"
        },
        {
            "type": "function",
            "name": "authorizeIssuer",
            "inputs": [
                {
                    "name": "issuer",
                    "type": "address",
                    "internalType": "address"
                }
            ],
            "outputs": [],
            "stateMutability": "nonpayable"
        },
        {
            "type": "function",
            "name": "authorizedIssuers",
            "inputs": [
                {
                    "name": "",
                    "type": "address",
                    "internalType": "address"
                }
            ],
            "outputs": [
                {
                    "name": "",
                    "type": "bool",
                    "internalType": "bool"
                }
            ],
            "stateMutability": "view"
        },
        {
            "type": "function",
            "name": "createAwardNFT",
            "inputs": [
                {
                    "name": "name",
                    "type": "string",
                    "internalType": "string"
                },
                {
                    "name": "symbol",
                    "type": "string",
                    "internalType": "string"
                },
                {
                    "name": "tokenURI",
                    "type": "string",
                    "internalType": "string"
                },
                {
                    "name": "awardTitle",
                    "type": "string",
                    "internalType": "string"
                },
                {
                    "name": "dateAwarded",
                    "type": "string",
                    "internalType": "string"
                }
            ],
            "outputs": [
                {
                    "name": "",
                    "type": "address",
                    "internalType": "address"
                }
            ],
            "stateMutability": "nonpayable"
        },
        {
            "type": "function",
            "name": "createCertificateNFT",
            "inputs": [
                {
                    "name": "name",
                    "type": "string",
                    "internalType": "string"
                },
                {
                    "name": "symbol",
                    "type": "string",
                    "internalType": "string"
                },
                {
                    "name": "tokenURI",
                    "type": "string",
                    "internalType": "string"
                },
                {
                    "name": "courseName",
                    "type": "string",
                    "internalType": "string"
                },
                {
                    "name": "institution",
                    "type": "string",
                    "internalType": "string"
                },
                {
                    "name": "dateIssued",
                    "type": "string",
                    "internalType": "string"
                }
            ],
            "outputs": [
                {
                    "name": "",
                    "type": "address",
                    "internalType": "address"
                }
            ],
            "stateMutability": "nonpayable"
        },
        {
            "type": "function",
            "name": "createDegreeNFT",
            "inputs": [
                {
                    "name": "name",
                    "type": "string",
                    "internalType": "string"
                },
                {
                    "name": "symbol",
                    "type": "string",
                    "internalType": "string"
                },
                {
                    "name": "tokenURI",
                    "type": "string",
                    "internalType": "string"
                },
                {
                    "name": "major",
                    "type": "string",
                    "internalType": "string"
                },
                {
                    "name": "institution",
                    "type": "string",
                    "internalType": "string"
                },
                {
                    "name": "graduationYear",
                    "type": "string",
                    "internalType": "string"
                }
            ],
            "outputs": [
                {
                    "name": "",
                    "type": "address",
                    "internalType": "address"
                }
            ],
            "stateMutability": "nonpayable"
        },
        {
            "type": "function",
            "name": "createDiplomaNFT",
            "inputs": [
                {
                    "name": "name",
                    "type": "string",
                    "internalType": "string"
                },
                {
                    "name": "symbol",
                    "type": "string",
                    "internalType": "string"
                },
                {
                    "name": "tokenURI",
                    "type": "string",
                    "internalType": "string"
                },
                {
                    "name": "fieldOfStudy",
                    "type": "string",
                    "internalType": "string"
                },
                {
                    "name": "institution",
                    "type": "string",
                    "internalType": "string"
                },
                {
                    "name": "graduationYear",
                    "type": "string",
                    "internalType": "string"
                }
            ],
            "outputs": [
                {
                    "name": "",
                    "type": "address",
                    "internalType": "address"
                }
            ],
            "stateMutability": "nonpayable"
        },
        {
            "type": "function",
            "name": "eduNFTs",
            "inputs": [
                {
                    "name": "",
                    "type": "address",
                    "internalType": "address"
                }
            ],
            "outputs": [
                {
                    "name": "",
                    "type": "bool",
                    "internalType": "bool"
                }
            ],
            "stateMutability": "view"
        },
        {
            "type": "function",
            "name": "getNFTType",
            "inputs": [
                {
                    "name": "nftAddress",
                    "type": "address",
                    "internalType": "address"
                }
            ],
            "outputs": [
                {
                    "name": "",
                    "type": "uint8",
                    "internalType": "enum NFTType"
                }
            ],
            "stateMutability": "view"
        },
        {
            "type": "function",
            "name": "getTokenURI",
            "inputs": [
                {
                    "name": "nftAddress",
                    "type": "address",
                    "internalType": "address"
                }
            ],
            "outputs": [
                {
                    "name": "",
                    "type": "string",
                    "internalType": "string"
                }
            ],
            "stateMutability": "view"
        },
        {
            "type": "function",
            "name": "isEduNFT",
            "inputs": [
                {
                    "name": "nftAddress",
                    "type": "address",
                    "internalType": "address"
                }
            ],
            "outputs": [
                {
                    "name": "",
                    "type": "bool",
                    "internalType": "bool"
                }
            ],
            "stateMutability": "view"
        },
        {
            "type": "function",
            "name": "mintNFT",
            "inputs": [
                {
                    "name": "nftAddress",
                    "type": "address",
                    "internalType": "address"
                },
                {
                    "name": "to",
                    "type": "address",
                    "internalType": "address"
                },
                {
                    "name": "proof",
                    "type": "bool",
                    "internalType": "bool"
                }
            ],
            "outputs": [
                {
                    "name": "",
                    "type": "uint256",
                    "internalType": "uint256"
                }
            ],
            "stateMutability": "nonpayable"
        },
        {
            "type": "function",
            "name": "owner",
            "inputs": [],
            "outputs": [
                {
                    "name": "",
                    "type": "address",
                    "internalType": "address"
                }
            ],
            "stateMutability": "view"
        },
        {
            "type": "function",
            "name": "renounceOwnership",
            "inputs": [],
            "outputs": [],
            "stateMutability": "nonpayable"
        },
        {
            "type": "function",
            "name": "revokeIssuer",
            "inputs": [
                {
                    "name": "issuer",
                    "type": "address",
                    "internalType": "address"
                }
            ],
            "outputs": [],
            "stateMutability": "nonpayable"
        },
        {
            "type": "function",
            "name": "transferOwnership",
            "inputs": [
                {
                    "name": "newOwner",
                    "type": "address",
                    "internalType": "address"
                }
            ],
            "outputs": [],
            "stateMutability": "nonpayable"
        },
        {
            "type": "event",
            "name": "NFTContractCreated",
            "inputs": [
                {
                    "name": "nftAddress",
                    "type": "address",
                    "indexed": true,
                    "internalType": "address"
                },
                {
                    "name": "issuer",
                    "type": "address",
                    "indexed": true,
                    "internalType": "address"
                },
                {
                    "name": "nftType",
                    "type": "uint8",
                    "indexed": false,
                    "internalType": "enum NFTType"
                }
            ],
            "anonymous": false
        },
        {
            "type": "event",
            "name": "NFTMinted",
            "inputs": [
                {
                    "name": "nftAddress",
                    "type": "address",
                    "indexed": true,
                    "internalType": "address"
                },
                {
                    "name": "to",
                    "type": "address",
                    "indexed": true,
                    "internalType": "address"
                },
                {
                    "name": "tokenId",
                    "type": "uint256",
                    "indexed": false,
                    "internalType": "uint256"
                }
            ],
            "anonymous": false
        },
        {
            "type": "event",
            "name": "OwnershipTransferred",
            "inputs": [
                {
                    "name": "previousOwner",
                    "type": "address",
                    "indexed": true,
                    "internalType": "address"
                },
                {
                    "name": "newOwner",
                    "type": "address",
                    "indexed": true,
                    "internalType": "address"
                }
            ],
            "anonymous": false
        },
        {
            "type": "error",
            "name": "OwnableInvalidOwner",
            "inputs": [
                {
                    "name": "owner",
                    "type": "address",
                    "internalType": "address"
                }
            ]
        },
        {
            "type": "error",
            "name": "OwnableUnauthorizedAccount",
            "inputs": [
                {
                    "name": "account",
                    "type": "address",
                    "internalType": "address"
                }
            ]
        }
    ],
    "bytecode": {
        "object": "0x608060405234801561000f575f5ffd5b50335f73ffffffffffffffffffffffffffffffffffffffff168173ffffffffffffffffffffffffffffffffffffffff1603610081575f6040517f1e4fbdf700000000000000000000000000000000000000000000000000000000815260040161007891906101ea565b60405180910390fd5b610090816100ea60201b60201c565b506001805f3373ffffffffffffffffffffffffffffffffffffffff1673ffffffffffffffffffffffffffffffffffffffff1681526020019081526020015f205f6101000a81548160ff021916908315150217905550610203565b5f5f5f9054906101000a900473ffffffffffffffffffffffffffffffffffffffff169050815f5f6101000a81548173ffffffffffffffffffffffffffffffffffffffff021916908373ffffffffffffffffffffffffffffffffffffffff1602179055508173ffffffffffffffffffffffffffffffffffffffff168173ffffffffffffffffffffffffffffffffffffffff167f8be0079c531659141344cd1fd0a4f28419497f9722a3daafe3b4186f6b6457e060405160405180910390a35050565b5f73ffffffffffffffffffffffffffffffffffffffff82169050919050565b5f6101d4826101ab565b9050919050565b6101e4816101ca565b82525050565b5f6020820190506101fd5f8301846101db565b92915050565b615e5d806102105f395ff3fe608060405234801561000f575f5ffd5b50600436106100f2575f3560e01c80637662e3e511610095578063c0a041d211610064578063c0a041d2146102a6578063ebc3057b146102d6578063f2fde38b14610306578063f731fa0f14610322576100f2565b80637662e3e5146101f85780638da5cb5b14610228578063971349e31461024657806398f3270314610276576100f2565b806361c028e7116100d157806361c028e71461015e578063653219271461018e578063699af713146101be578063715018a6146101ee576100f2565b8062629679146100f65780632933008314610112578063436693d514610142575b5f5ffd5b610110600480360381019061010b91906111ba565b610352565b005b61012c60048036038101906101279190611321565b6103b1565b6040516101399190611461565b60405180910390f35b61015c600480360381019061015791906111ba565b61056b565b005b610178600480360381019061017391906111ba565b6105ca565b60405161018591906114da565b60405180910390f35b6101a860048036038101906101a391906111ba565b6106cc565b6040516101b59190611514565b60405180910390f35b6101d860048036038101906101d391906111ba565b6106e9565b6040516101e59190611514565b60405180910390f35b6101f661073b565b005b610212600480360381019061020d9190611321565b61074e565b60405161021f9190611461565b60405180910390f35b610230610908565b60405161023d9190611461565b60405180910390f35b610260600480360381019061025b91906111ba565b61092f565b60405161026d91906115a0565b60405180910390f35b610290600480360381019061028b91906115e3565b610a2d565b60405161029d919061164b565b60405180910390f35b6102c060048036038101906102bb9190611321565b610be3565b6040516102cd9190611461565b60405180910390f35b6102f060048036038101906102eb9190611664565b610d9d565b6040516102fd9190611461565b60405180910390f35b610320600480360381019061031b91906111ba565b610f52565b005b61033c600480360381019061033791906111ba565b610fd6565b6040516103499190611514565b60405180910390f35b61035a610ff3565b5f60015f8373ffffffffffffffffffffffffffffffffffffffff1673ffffffffffffffffffffffffffffffffffffffff1681526020019081526020015f205f6101000a81548160ff02191690831515021790555050565b5f60015f3373ffffffffffffffffffffffffffffffffffffffff1673ffffffffffffffffffffffffffffffffffffffff1681526020019081526020015f205f9054906101000a900460ff1661043b576040517f08c379a0000000000000000000000000000000000000000000000000000000008152600401610432906117b1565b60405180910390fd5b5f848484604051602001610451939291906117cf565b60405160208183030381529060405290505f30898960028a8660405161047690611142565b6104859695949392919061186b565b604051809103905ff08015801561049e573d5f5f3e3d5ffd5b509050600160025f8373ffffffffffffffffffffffffffffffffffffffff1673ffffffffffffffffffffffffffffffffffffffff1681526020019081526020015f205f6101000a81548160ff0219169083151502179055503373ffffffffffffffffffffffffffffffffffffffff168173ffffffffffffffffffffffffffffffffffffffff167fd4889d65adf99922bb16435536b92e0ed2b84f74001bc2064201930acc40525b600260405161055491906115a0565b60405180910390a380925050509695505050505050565b610573610ff3565b6001805f8373ffffffffffffffffffffffffffffffffffffffff1673ffffffffffffffffffffffffffffffffffffffff1681526020019081526020015f205f6101000a81548160ff02191690831515021790555050565b606060025f8373ffffffffffffffffffffffffffffffffffffffff1673ffffffffffffffffffffffffffffffffffffffff1681526020019081526020015f205f9054906101000a900460ff16610655576040517f08c379a000000000000000000000000000000000000000000000000000000000815260040161064c90611930565b60405180910390fd5b8173ffffffffffffffffffffffffffffffffffffffff1663bdc32be06040518163ffffffff1660e01b81526004015f60405180830381865afa15801561069d573d5f5f3e3d5ffd5b505050506040513d5f823e3d601f19601f820116820180604052508101906106c591906119bc565b9050919050565b6002602052805f5260405f205f915054906101000a900460ff1681565b5f60025f8373ffffffffffffffffffffffffffffffffffffffff1673ffffffffffffffffffffffffffffffffffffffff1681526020019081526020015f205f9054906101000a900460ff169050919050565b610743610ff3565b61074c5f61107a565b565b5f60015f3373ffffffffffffffffffffffffffffffffffffffff1673ffffffffffffffffffffffffffffffffffffffff1681526020019081526020015f205f9054906101000a900460ff166107d8576040517f08c379a00000000000000000000000000000000000000000000000000000000081526004016107cf906117b1565b60405180910390fd5b5f8484846040516020016107ee939291906117cf565b60405160208183030381529060405290505f30898960018a8660405161081390611142565b6108229695949392919061186b565b604051809103905ff08015801561083b573d5f5f3e3d5ffd5b509050600160025f8373ffffffffffffffffffffffffffffffffffffffff1673ffffffffffffffffffffffffffffffffffffffff1681526020019081526020015f205f6101000a81548160ff0219169083151502179055503373ffffffffffffffffffffffffffffffffffffffff168173ffffffffffffffffffffffffffffffffffffffff167fd4889d65adf99922bb16435536b92e0ed2b84f74001bc2064201930acc40525b60016040516108f191906115a0565b60405180910390a380925050509695505050505050565b5f5f5f9054906101000a900473ffffffffffffffffffffffffffffffffffffffff16905090565b5f60025f8373ffffffffffffffffffffffffffffffffffffffff1673ffffffffffffffffffffffffffffffffffffffff1681526020019081526020015f205f9054906101000a900460ff166109b9576040517f08c379a00000000000000000000000000000000000000000000000000000000081526004016109b090611930565b60405180910390fd5b8173ffffffffffffffffffffffffffffffffffffffff1663cb2ef6f76040518163ffffffff1660e01b8152600401602060405180830381865afa158015610a02573d5f5f3e3d5ffd5b505050506040513d601f19601f82011682018060405250810190610a269190611a26565b9050919050565b5f60025f8573ffffffffffffffffffffffffffffffffffffffff1673ffffffffffffffffffffffffffffffffffffffff1681526020019081526020015f205f9054906101000a900460ff16610ab7576040517f08c379a0000000000000000000000000000000000000000000000000000000008152600401610aae90611930565b60405180910390fd5b81610af7576040517f08c379a0000000000000000000000000000000000000000000000000000000008152600401610aee90611a9b565b60405180910390fd5b5f8473ffffffffffffffffffffffffffffffffffffffff16636a627842856040518263ffffffff1660e01b8152600401610b319190611461565b6020604051808303815f875af1158015610b4d573d5f5f3e3d5ffd5b505050506040513d601f19601f82011682018060405250810190610b719190611ae3565b90508373ffffffffffffffffffffffffffffffffffffffff168573ffffffffffffffffffffffffffffffffffffffff167f2f7377f0470ca5f5d5bcb55c33ff5e20e0a2653933e0615e99f01e81640d0a9283604051610bd0919061164b565b60405180910390a3809150509392505050565b5f60015f3373ffffffffffffffffffffffffffffffffffffffff1673ffffffffffffffffffffffffffffffffffffffff1681526020019081526020015f205f9054906101000a900460ff16610c6d576040517f08c379a0000000000000000000000000000000000000000000000000000000008152600401610c64906117b1565b60405180910390fd5b5f848484604051602001610c83939291906117cf565b60405160208183030381529060405290505f30898960038a86604051610ca890611142565b610cb79695949392919061186b565b604051809103905ff080158015610cd0573d5f5f3e3d5ffd5b509050600160025f8373ffffffffffffffffffffffffffffffffffffffff1673ffffffffffffffffffffffffffffffffffffffff1681526020019081526020015f205f6101000a81548160ff0219169083151502179055503373ffffffffffffffffffffffffffffffffffffffff168173ffffffffffffffffffffffffffffffffffffffff167fd4889d65adf99922bb16435536b92e0ed2b84f74001bc2064201930acc40525b6003604051610d8691906115a0565b60405180910390a380925050509695505050505050565b5f60015f3373ffffffffffffffffffffffffffffffffffffffff1673ffffffffffffffffffffffffffffffffffffffff1681526020019081526020015f205f9054906101000a900460ff16610e27576040517f08c379a0000000000000000000000000000000000000000000000000000000008152600401610e1e906117b1565b60405180910390fd5b5f8383604051602001610e3b929190611b0e565b60405160208183030381529060405290505f3088885f8986604051610e5f90611142565b610e6e9695949392919061186b565b604051809103905ff080158015610e87573d5f5f3e3d5ffd5b509050600160025f8373ffffffffffffffffffffffffffffffffffffffff1673ffffffffffffffffffffffffffffffffffffffff1681526020019081526020015f205f6101000a81548160ff0219169083151502179055503373ffffffffffffffffffffffffffffffffffffffff168173ffffffffffffffffffffffffffffffffffffffff167fd4889d65adf99922bb16435536b92e0ed2b84f74001bc2064201930acc40525b5f604051610f3c91906115a0565b60405180910390a3809250505095945050505050565b610f5a610ff3565b5f73ffffffffffffffffffffffffffffffffffffffff168173ffffffffffffffffffffffffffffffffffffffff1603610fca575f6040517f1e4fbdf7000000000000000000000000000000000000000000000000000000008152600401610fc19190611461565b60405180910390fd5b610fd38161107a565b50565b6001602052805f5260405f205f915054906101000a900460ff1681565b610ffb61113b565b73ffffffffffffffffffffffffffffffffffffffff16611019610908565b73ffffffffffffffffffffffffffffffffffffffff16146110785761103c61113b565b6040517f118cdaa700000000000000000000000000000000000000000000000000000000815260040161106f9190611461565b60405180910390fd5b565b5f5f5f9054906101000a900473ffffffffffffffffffffffffffffffffffffffff169050815f5f6101000a81548173ffffffffffffffffffffffffffffffffffffffff021916908373ffffffffffffffffffffffffffffffffffffffff1602179055508173ffffffffffffffffffffffffffffffffffffffff168173ffffffffffffffffffffffffffffffffffffffff167f8be0079c531659141344cd1fd0a4f28419497f9722a3daafe3b4186f6b6457e060405160405180910390a35050565b5f33905090565b6142e480611b4483390190565b5f604051905090565b5f5ffd5b5f5ffd5b5f73ffffffffffffffffffffffffffffffffffffffff82169050919050565b5f61118982611160565b9050919050565b6111998161117f565b81146111a3575f5ffd5b50565b5f813590506111b481611190565b92915050565b5f602082840312156111cf576111ce611158565b5b5f6111dc848285016111a6565b91505092915050565b5f5ffd5b5f5ffd5b5f601f19601f8301169050919050565b7f4e487b71000000000000000000000000000000000000000000000000000000005f52604160045260245ffd5b611233826111ed565b810181811067ffffffffffffffff82111715611252576112516111fd565b5b80604052505050565b5f61126461114f565b9050611270828261122a565b919050565b5f67ffffffffffffffff82111561128f5761128e6111fd565b5b611298826111ed565b9050602081019050919050565b828183375f83830152505050565b5f6112c56112c084611275565b61125b565b9050828152602081018484840111156112e1576112e06111e9565b5b6112ec8482856112a5565b509392505050565b5f82601f830112611308576113076111e5565b5b81356113188482602086016112b3565b91505092915050565b5f5f5f5f5f5f60c0878903121561133b5761133a611158565b5b5f87013567ffffffffffffffff8111156113585761135761115c565b5b61136489828a016112f4565b965050602087013567ffffffffffffffff8111156113855761138461115c565b5b61139189828a016112f4565b955050604087013567ffffffffffffffff8111156113b2576113b161115c565b5b6113be89828a016112f4565b945050606087013567ffffffffffffffff8111156113df576113de61115c565b5b6113eb89828a016112f4565b935050608087013567ffffffffffffffff81111561140c5761140b61115c565b5b61141889828a016112f4565b92505060a087013567ffffffffffffffff8111156114395761143861115c565b5b61144589828a016112f4565b9150509295509295509295565b61145b8161117f565b82525050565b5f6020820190506114745f830184611452565b92915050565b5f81519050919050565b5f82825260208201905092915050565b8281835e5f83830152505050565b5f6114ac8261147a565b6114b68185611484565b93506114c6818560208601611494565b6114cf816111ed565b840191505092915050565b5f6020820190508181035f8301526114f281846114a2565b905092915050565b5f8115159050919050565b61150e816114fa565b82525050565b5f6020820190506115275f830184611505565b92915050565b7f4e487b71000000000000000000000000000000000000000000000000000000005f52602160045260245ffd5b6004811061156b5761156a61152d565b5b50565b5f81905061157b8261155a565b919050565b5f61158a8261156e565b9050919050565b61159a81611580565b82525050565b5f6020820190506115b35f830184611591565b92915050565b6115c2816114fa565b81146115cc575f5ffd5b50565b5f813590506115dd816115b9565b92915050565b5f5f5f606084860312156115fa576115f9611158565b5b5f611607868287016111a6565b9350506020611618868287016111a6565b9250506040611629868287016115cf565b9150509250925092565b5f819050919050565b61164581611633565b82525050565b5f60208201905061165e5f83018461163c565b92915050565b5f5f5f5f5f60a0868803121561167d5761167c611158565b5b5f86013567ffffffffffffffff81111561169a5761169961115c565b5b6116a6888289016112f4565b955050602086013567ffffffffffffffff8111156116c7576116c661115c565b5b6116d3888289016112f4565b945050604086013567ffffffffffffffff8111156116f4576116f361115c565b5b611700888289016112f4565b935050606086013567ffffffffffffffff8111156117215761172061115c565b5b61172d888289016112f4565b925050608086013567ffffffffffffffff81111561174e5761174d61115c565b5b61175a888289016112f4565b9150509295509295909350565b7f4e6f7420617574686f72697a65642069737375657200000000000000000000005f82015250565b5f61179b601583611484565b91506117a682611767565b602082019050919050565b5f6020820190508181035f8301526117c88161178f565b9050919050565b5f6060820190508181035f8301526117e781866114a2565b905081810360208301526117fb81856114a2565b9050818103604083015261180f81846114a2565b9050949350505050565b5f81519050919050565b5f82825260208201905092915050565b5f61183d82611819565b6118478185611823565b9350611857818560208601611494565b611860816111ed565b840191505092915050565b5f60c08201905061187e5f830189611452565b818103602083015261189081886114a2565b905081810360408301526118a481876114a2565b90506118b36060830186611591565b81810360808301526118c581856114a2565b905081810360a08301526118d98184611833565b9050979650505050505050565b7f4e6f74204564754e4654000000000000000000000000000000000000000000005f82015250565b5f61191a600a83611484565b9150611925826118e6565b602082019050919050565b5f6020820190508181035f8301526119478161190e565b9050919050565b5f61196061195b84611275565b61125b565b90508281526020810184848401111561197c5761197b6111e9565b5b611987848285611494565b509392505050565b5f82601f8301126119a3576119a26111e5565b5b81516119b384826020860161194e565b91505092915050565b5f602082840312156119d1576119d0611158565b5b5f82015167ffffffffffffffff8111156119ee576119ed61115c565b5b6119fa8482850161198f565b91505092915050565b60048110611a0f575f5ffd5b50565b5f81519050611a2081611a03565b92915050565b5f60208284031215611a3b57611a3a611158565b5b5f611a4884828501611a12565b91505092915050565b7f4e6f74205175616c6966696564000000000000000000000000000000000000005f82015250565b5f611a85600d83611484565b9150611a9082611a51565b602082019050919050565b5f6020820190508181035f830152611ab281611a79565b9050919050565b611ac281611633565b8114611acc575f5ffd5b50565b5f81519050611add81611ab9565b92915050565b5f60208284031215611af857611af7611158565b5b5f611b0584828501611acf565b91505092915050565b5f6040820190508181035f830152611b2681856114a2565b90508181036020830152611b3a81846114a2565b9050939250505056fe60c060405234801561000f575f5ffd5b506040516142e43803806142e48339818101604052810190610031919061071c565b858585815f90816100429190610a25565b5080600190816100529190610a25565b5050505f73ffffffffffffffffffffffffffffffffffffffff168173ffffffffffffffffffffffffffffffffffffffff16036100c5575f6040517f1e4fbdf70000000000000000000000000000000000000000000000000000000081526004016100bc9190610b03565b60405180910390fd5b6100d4816103f160201b60201c565b508573ffffffffffffffffffffffffffffffffffffffff1660a08173ffffffffffffffffffffffffffffffffffffffff168152505082600381111561011c5761011b610b1c565b5b608081600381111561013157610130610b1c565b5b8152505081600890816101449190610a25565b505f600381111561015857610157610b1c565b5b83600381111561016b5761016a610b1c565b5b036101d5575f5f828060200190518101906101869190610b49565b9150915060405180604001604052808381526020018281525060095f820151815f0190816101b49190610a25565b5060208201518160010190816101ca9190610a25565b5090505050506103e6565b600160038111156101e9576101e8610b1c565b5b8360038111156101fc576101fb610b1c565b5b03610286575f5f5f838060200190518101906102189190610bbf565b925092509250604051806060016040528084815260200183815260200182815250600b5f820151815f01908161024e9190610a25565b5060208201518160010190816102649190610a25565b50604082015181600201908161027a9190610a25565b509050505050506103e5565b6002600381111561029a57610299610b1c565b5b8360038111156102ad576102ac610b1c565b5b03610337575f5f5f838060200190518101906102c99190610bbf565b925092509250604051806060016040528084815260200183815260200182815250600e5f820151815f0190816102ff9190610a25565b5060208201518160010190816103159190610a25565b50604082015181600201908161032b9190610a25565b509050505050506103e4565b60038081111561034a57610349610b1c565b5b83600381111561035d5761035c610b1c565b5b036103e3575f5f5f838060200190518101906103799190610bbf565b92509250925060405180606001604052808481526020018381526020018281525060115f820151815f0190816103af9190610a25565b5060208201518160010190816103c59190610a25565b5060408201518160020190816103db9190610a25565b509050505050505b5b5b5b505050505050610c63565b5f60065f9054906101000a900473ffffffffffffffffffffffffffffffffffffffff1690508160065f6101000a81548173ffffffffffffffffffffffffffffffffffffffff021916908373ffffffffffffffffffffffffffffffffffffffff1602179055508173ffffffffffffffffffffffffffffffffffffffff168173ffffffffffffffffffffffffffffffffffffffff167f8be0079c531659141344cd1fd0a4f28419497f9722a3daafe3b4186f6b6457e060405160405180910390a35050565b5f604051905090565b5f5ffd5b5f5ffd5b5f73ffffffffffffffffffffffffffffffffffffffff82169050919050565b5f6104ee826104c5565b9050919050565b6104fe816104e4565b8114610508575f5ffd5b50565b5f81519050610519816104f5565b92915050565b5f5ffd5b5f5ffd5b5f601f19601f8301169050919050565b7f4e487b71000000000000000000000000000000000000000000000000000000005f52604160045260245ffd5b61056d82610527565b810181811067ffffffffffffffff8211171561058c5761058b610537565b5b80604052505050565b5f61059e6104b4565b90506105aa8282610564565b919050565b5f67ffffffffffffffff8211156105c9576105c8610537565b5b6105d282610527565b9050602081019050919050565b8281835e5f83830152505050565b5f6105ff6105fa846105af565b610595565b90508281526020810184848401111561061b5761061a610523565b5b6106268482856105df565b509392505050565b5f82601f8301126106425761064161051f565b5b81516106528482602086016105ed565b91505092915050565b60048110610667575f5ffd5b50565b5f815190506106788161065b565b92915050565b5f67ffffffffffffffff82111561069857610697610537565b5b6106a182610527565b9050602081019050919050565b5f6106c06106bb8461067e565b610595565b9050828152602081018484840111156106dc576106db610523565b5b6106e78482856105df565b509392505050565b5f82601f8301126107035761070261051f565b5b81516107138482602086016106ae565b91505092915050565b5f5f5f5f5f5f60c08789031215610736576107356104bd565b5b5f61074389828a0161050b565b965050602087015167ffffffffffffffff811115610764576107636104c1565b5b61077089828a0161062e565b955050604087015167ffffffffffffffff811115610791576107906104c1565b5b61079d89828a0161062e565b94505060606107ae89828a0161066a565b935050608087015167ffffffffffffffff8111156107cf576107ce6104c1565b5b6107db89828a0161062e565b92505060a087015167ffffffffffffffff8111156107fc576107fb6104c1565b5b61080889828a016106ef565b9150509295509295509295565b5f81519050919050565b7f4e487b71000000000000000000000000000000000000000000000000000000005f52602260045260245ffd5b5f600282049050600182168061086357607f821691505b6020821081036108765761087561081f565b5b50919050565b5f819050815f5260205f209050919050565b5f6020601f8301049050919050565b5f82821b905092915050565b5f600883026108d87fffffffffffffffffffffffffffffffffffffffffffffffffffffffffffffffff8261089d565b6108e2868361089d565b95508019841693508086168417925050509392505050565b5f819050919050565b5f819050919050565b5f61092661092161091c846108fa565b610903565b6108fa565b9050919050565b5f819050919050565b61093f8361090c565b61095361094b8261092d565b8484546108a9565b825550505050565b5f5f905090565b61096a61095b565b610975818484610936565b505050565b5b818110156109985761098d5f82610962565b60018101905061097b565b5050565b601f8211156109dd576109ae8161087c565b6109b78461088e565b810160208510156109c6578190505b6109da6109d28561088e565b83018261097a565b50505b505050565b5f82821c905092915050565b5f6109fd5f19846008026109e2565b1980831691505092915050565b5f610a1583836109ee565b9150826002028217905092915050565b610a2e82610815565b67ffffffffffffffff811115610a4757610a46610537565b5b610a51825461084c565b610a5c82828561099c565b5f60209050601f831160018114610a8d575f8415610a7b578287015190505b610a858582610a0a565b865550610aec565b601f198416610a9b8661087c565b5f5b82811015610ac257848901518255600182019150602085019450602081019050610a9d565b86831015610adf5784890151610adb601f8916826109ee565b8355505b6001600288020188555050505b505050505050565b610afd816104e4565b82525050565b5f602082019050610b165f830184610af4565b92915050565b7f4e487b71000000000000000000000000000000000000000000000000000000005f52602160045260245ffd5b5f5f60408385031215610b5f57610b5e6104bd565b5b5f83015167ffffffffffffffff811115610b7c57610b7b6104c1565b5b610b888582860161062e565b925050602083015167ffffffffffffffff811115610ba957610ba86104c1565b5b610bb58582860161062e565b9150509250929050565b5f5f5f60608486031215610bd657610bd56104bd565b5b5f84015167ffffffffffffffff811115610bf357610bf26104c1565b5b610bff8682870161062e565b935050602084015167ffffffffffffffff811115610c2057610c1f6104c1565b5b610c2c8682870161062e565b925050604084015167ffffffffffffffff811115610c4d57610c4c6104c1565b5b610c598682870161062e565b9150509250925092565b60805160a05161363d610ca75f395f81816108700152610a8401525f81816108ce01528181610fa701528181611338015281816115ac0152611ab7015261363d5ff3fe608060405234801561000f575f5ffd5b50600436106101d8575f3560e01c80638da5cb5b11610102578063cb2ef6f7116100a0578063e985e9c51161006f578063e985e9c51461053b578063f20b9e991461056b578063f2fde38b1461058b578063f522b86d146105a7576101d8565b8063cb2ef6f7146104c1578063d547cfb7146104df578063db949aa7146104fd578063e35955ec1461051d576101d8565b8063a22cb465116100dc578063a22cb4651461043b578063b88d4fde14610457578063bdc32be014610473578063c87b56dd14610491576101d8565b80638da5cb5b146103e157806395d89b41146103ff578063a12390891461041d576101d8565b806342842e0e1161017a57806370a082311161014957806370a0823114610368578063715018a61461039857806382be6461146103a2578063836c5f7b146103c2576101d8565b806342842e0e146102ce5780635b37171e146102ea5780636352211e146103085780636a62784214610338576101d8565b8063095ea7b3116101b6578063095ea7b31461025a57806318160ddd1461027657806323b872dd14610294578063365a86fc146102b0576101d8565b806301ffc9a7146101dc57806306fdde031461020c578063081812fc1461022a575b5f5ffd5b6101f660048036038101906101f191906129e5565b6105c5565b6040516102039190612a2a565b60405180910390f35b6102146106a6565b6040516102219190612ab3565b60405180910390f35b610244600480360381019061023f9190612b06565b610735565b6040516102519190612b70565b60405180910390f35b610274600480360381019061026f9190612bb3565b610750565b005b61027e610766565b60405161028b9190612c00565b60405180910390f35b6102ae60048036038101906102a99190612c19565b61076f565b005b6102b861086e565b6040516102c59190612b70565b60405180910390f35b6102e860048036038101906102e39190612c19565b610892565b005b6102f26108b1565b6040516102ff9190612cf2565b60405180910390f35b610322600480360381019061031d9190612b06565b610a70565b60405161032f9190612b70565b60405180910390f35b610352600480360381019061034d9190612d12565b610a81565b60405161035f9190612c00565b60405180910390f35b610382600480360381019061037d9190612d12565b610b42565b60405161038f9190612c00565b60405180910390f35b6103a0610bf8565b005b6103aa610c0b565b6040516103b993929190612d3d565b60405180910390f35b6103ca610db4565b6040516103d8929190612d87565b60405180910390f35b6103e9610ed1565b6040516103f69190612b70565b60405180910390f35b610407610ef9565b6040516104149190612ab3565b60405180910390f35b610425610f89565b6040516104329190612e17565b60405180910390f35b61045560048036038101906104509190612e61565b6111d9565b005b610471600480360381019061046c9190612fcb565b6111ef565b005b61047b611214565b6040516104889190612ab3565b60405180910390f35b6104ab60048036038101906104a69190612b06565b6112a4565b6040516104b89190612ab3565b60405180910390f35b6104c9611336565b6040516104d691906130be565b60405180910390f35b6104e761135a565b6040516104f49190612ab3565b60405180910390f35b6105056113e6565b60405161051493929190612d3d565b60405180910390f35b61052561158f565b6040516105329190613132565b60405180910390f35b61055560048036038101906105509190613152565b6117de565b6040516105629190612a2a565b60405180910390f35b61057361186c565b60405161058293929190612d3d565b60405180910390f35b6105a560048036038101906105a09190612d12565b611a15565b005b6105af611a99565b6040516105bc91906131eb565b60405180910390f35b5f7f80ac58cd000000000000000000000000000000000000000000000000000000007bffffffffffffffffffffffffffffffffffffffffffffffffffffffff1916827bffffffffffffffffffffffffffffffffffffffffffffffffffffffff1916148061068f57507f5b5e139f000000000000000000000000000000000000000000000000000000007bffffffffffffffffffffffffffffffffffffffffffffffffffffffff1916827bffffffffffffffffffffffffffffffffffffffffffffffffffffffff1916145b8061069f575061069e82611ce9565b5b9050919050565b60605f80546106b490613238565b80601f01602080910402602001604051908101604052809291908181526020018280546106e090613238565b801561072b5780601f106107025761010080835404028352916020019161072b565b820191905f5260205f20905b81548152906001019060200180831161070e57829003601f168201915b5050505050905090565b5f61073f82611d52565b5061074982611dd8565b9050919050565b610762828261075d611e11565b611e18565b5050565b5f600754905090565b5f73ffffffffffffffffffffffffffffffffffffffff168273ffffffffffffffffffffffffffffffffffffffff16036107df575f6040517f64a0ae920000000000000000000000000000000000000000000000000000000081526004016107d69190612b70565b60405180910390fd5b5f6107f283836107ed611e11565b611e2a565b90508373ffffffffffffffffffffffffffffffffffffffff168173ffffffffffffffffffffffffffffffffffffffff1614610868578382826040517f64283d7b00000000000000000000000000000000000000000000000000000000815260040161085f93929190613268565b60405180910390fd5b50505050565b7f000000000000000000000000000000000000000000000000000000000000000081565b6108ac83838360405180602001604052805f8152506111ef565b505050565b6108b9612902565b5f60038111156108cc576108cb61304b565b5b7f000000000000000000000000000000000000000000000000000000000000000060038111156108ff576108fe61304b565b5b1461093f576040517f08c379a0000000000000000000000000000000000000000000000000000000008152600401610936906132e7565b60405180910390fd5b60096040518060400160405290815f8201805461095b90613238565b80601f016020809104026020016040519081016040528092919081815260200182805461098790613238565b80156109d25780601f106109a9576101008083540402835291602001916109d2565b820191905f5260205f20905b8154815290600101906020018083116109b557829003601f168201915b505050505081526020016001820180546109eb90613238565b80601f0160208091040260200160405190810160405280929190818152602001828054610a1790613238565b8015610a625780601f10610a3957610100808354040283529160200191610a62565b820191905f5260205f20905b815481529060010190602001808311610a4557829003601f168201915b505050505081525050905090565b5f610a7a82611d52565b9050919050565b5f7f000000000000000000000000000000000000000000000000000000000000000073ffffffffffffffffffffffffffffffffffffffff163373ffffffffffffffffffffffffffffffffffffffff1614610b10576040517f08c379a0000000000000000000000000000000000000000000000000000000008152600401610b079061334f565b60405180910390fd5b600160075f828254610b22919061339a565b925050819055505f6007549050610b398382612035565b80915050919050565b5f5f73ffffffffffffffffffffffffffffffffffffffff168273ffffffffffffffffffffffffffffffffffffffff1603610bb3575f6040517f89c62b64000000000000000000000000000000000000000000000000000000008152600401610baa9190612b70565b60405180910390fd5b60035f8373ffffffffffffffffffffffffffffffffffffffff1673ffffffffffffffffffffffffffffffffffffffff1681526020019081526020015f20549050919050565b610c00612128565b610c095f6121af565b565b600e805f018054610c1b90613238565b80601f0160208091040260200160405190810160405280929190818152602001828054610c4790613238565b8015610c925780601f10610c6957610100808354040283529160200191610c92565b820191905f5260205f20905b815481529060010190602001808311610c7557829003601f168201915b505050505090806001018054610ca790613238565b80601f0160208091040260200160405190810160405280929190818152602001828054610cd390613238565b8015610d1e5780601f10610cf557610100808354040283529160200191610d1e565b820191905f5260205f20905b815481529060010190602001808311610d0157829003601f168201915b505050505090806002018054610d3390613238565b80601f0160208091040260200160405190810160405280929190818152602001828054610d5f90613238565b8015610daa5780601f10610d8157610100808354040283529160200191610daa565b820191905f5260205f20905b815481529060010190602001808311610d8d57829003601f168201915b5050505050905083565b6009805f018054610dc490613238565b80601f0160208091040260200160405190810160405280929190818152602001828054610df090613238565b8015610e3b5780601f10610e1257610100808354040283529160200191610e3b565b820191905f5260205f20905b815481529060010190602001808311610e1e57829003601f168201915b505050505090806001018054610e5090613238565b80601f0160208091040260200160405190810160405280929190818152602001828054610e7c90613238565b8015610ec75780601f10610e9e57610100808354040283529160200191610ec7565b820191905f5260205f20905b815481529060010190602001808311610eaa57829003601f168201915b5050505050905082565b5f60065f9054906101000a900473ffffffffffffffffffffffffffffffffffffffff16905090565b606060018054610f0890613238565b80601f0160208091040260200160405190810160405280929190818152602001828054610f3490613238565b8015610f7f5780601f10610f5657610100808354040283529160200191610f7f565b820191905f5260205f20905b815481529060010190602001808311610f6257829003601f168201915b5050505050905090565b610f9161291c565b60016003811115610fa557610fa461304b565b5b7f00000000000000000000000000000000000000000000000000000000000000006003811115610fd857610fd761304b565b5b14611018576040517f08c379a000000000000000000000000000000000000000000000000000000000815260040161100f90613417565b60405180910390fd5b600b6040518060600160405290815f8201805461103490613238565b80601f016020809104026020016040519081016040528092919081815260200182805461106090613238565b80156110ab5780601f10611082576101008083540402835291602001916110ab565b820191905f5260205f20905b81548152906001019060200180831161108e57829003601f168201915b505050505081526020016001820180546110c490613238565b80601f01602080910402602001604051908101604052809291908181526020018280546110f090613238565b801561113b5780601f106111125761010080835404028352916020019161113b565b820191905f5260205f20905b81548152906001019060200180831161111e57829003601f168201915b5050505050815260200160028201805461115490613238565b80601f016020809104026020016040519081016040528092919081815260200182805461118090613238565b80156111cb5780601f106111a2576101008083540402835291602001916111cb565b820191905f5260205f20905b8154815290600101906020018083116111ae57829003601f168201915b505050505081525050905090565b6111eb6111e4611e11565b8383612272565b5050565b6111fa84848461076f565b61120e611205611e11565b858585856123db565b50505050565b60606008805461122390613238565b80601f016020809104026020016040519081016040528092919081815260200182805461124f90613238565b801561129a5780601f106112715761010080835404028352916020019161129a565b820191905f5260205f20905b81548152906001019060200180831161127d57829003601f168201915b5050505050905090565b6060600880546112b390613238565b80601f01602080910402602001604051908101604052809291908181526020018280546112df90613238565b801561132a5780601f106113015761010080835404028352916020019161132a565b820191905f5260205f20905b81548152906001019060200180831161130d57829003601f168201915b50505050509050919050565b7f000000000000000000000000000000000000000000000000000000000000000081565b6008805461136790613238565b80601f016020809104026020016040519081016040528092919081815260200182805461139390613238565b80156113de5780601f106113b5576101008083540402835291602001916113de565b820191905f5260205f20905b8154815290600101906020018083116113c157829003601f168201915b505050505081565b6011805f0180546113f690613238565b80601f016020809104026020016040519081016040528092919081815260200182805461142290613238565b801561146d5780601f106114445761010080835404028352916020019161146d565b820191905f5260205f20905b81548152906001019060200180831161145057829003601f168201915b50505050509080600101805461148290613238565b80601f01602080910402602001604051908101604052809291908181526020018280546114ae90613238565b80156114f95780601f106114d0576101008083540402835291602001916114f9565b820191905f5260205f20905b8154815290600101906020018083116114dc57829003601f168201915b50505050509080600201805461150e90613238565b80601f016020809104026020016040519081016040528092919081815260200182805461153a90613238565b80156115855780601f1061155c57610100808354040283529160200191611585565b820191905f5260205f20905b81548152906001019060200180831161156857829003601f168201915b5050505050905083565b61159761293d565b6003808111156115aa576115a961304b565b5b7f000000000000000000000000000000000000000000000000000000000000000060038111156115dd576115dc61304b565b5b1461161d576040517f08c379a00000000000000000000000000000000000000000000000000000000081526004016116149061347f565b60405180910390fd5b60116040518060600160405290815f8201805461163990613238565b80601f016020809104026020016040519081016040528092919081815260200182805461166590613238565b80156116b05780601f10611687576101008083540402835291602001916116b0565b820191905f5260205f20905b81548152906001019060200180831161169357829003601f168201915b505050505081526020016001820180546116c990613238565b80601f01602080910402602001604051908101604052809291908181526020018280546116f590613238565b80156117405780601f1061171757610100808354040283529160200191611740565b820191905f5260205f20905b81548152906001019060200180831161172357829003601f168201915b5050505050815260200160028201805461175990613238565b80601f016020809104026020016040519081016040528092919081815260200182805461178590613238565b80156117d05780601f106117a7576101008083540402835291602001916117d0565b820191905f5260205f20905b8154815290600101906020018083116117b357829003601f168201915b505050505081525050905090565b5f60055f8473ffffffffffffffffffffffffffffffffffffffff1673ffffffffffffffffffffffffffffffffffffffff1681526020019081526020015f205f8373ffffffffffffffffffffffffffffffffffffffff1673ffffffffffffffffffffffffffffffffffffffff1681526020019081526020015f205f9054906101000a900460ff16905092915050565b600b805f01805461187c90613238565b80601f01602080910402602001604051908101604052809291908181526020018280546118a890613238565b80156118f35780601f106118ca576101008083540402835291602001916118f3565b820191905f5260205f20905b8154815290600101906020018083116118d657829003601f168201915b50505050509080600101805461190890613238565b80601f016020809104026020016040519081016040528092919081815260200182805461193490613238565b801561197f5780601f106119565761010080835404028352916020019161197f565b820191905f5260205f20905b81548152906001019060200180831161196257829003601f168201915b50505050509080600201805461199490613238565b80601f01602080910402602001604051908101604052809291908181526020018280546119c090613238565b8015611a0b5780601f106119e257610100808354040283529160200191611a0b565b820191905f5260205f20905b8154815290600101906020018083116119ee57829003601f168201915b5050505050905083565b611a1d612128565b5f73ffffffffffffffffffffffffffffffffffffffff168173ffffffffffffffffffffffffffffffffffffffff1603611a8d575f6040517f1e4fbdf7000000000000000000000000000000000000000000000000000000008152600401611a849190612b70565b60405180910390fd5b611a96816121af565b50565b611aa161295e565b60026003811115611ab557611ab461304b565b5b7f00000000000000000000000000000000000000000000000000000000000000006003811115611ae857611ae761304b565b5b14611b28576040517f08c379a0000000000000000000000000000000000000000000000000000000008152600401611b1f906134e7565b60405180910390fd5b600e6040518060600160405290815f82018054611b4490613238565b80601f0160208091040260200160405190810160405280929190818152602001828054611b7090613238565b8015611bbb5780601f10611b9257610100808354040283529160200191611bbb565b820191905f5260205f20905b815481529060010190602001808311611b9e57829003601f168201915b50505050508152602001600182018054611bd490613238565b80601f0160208091040260200160405190810160405280929190818152602001828054611c0090613238565b8015611c4b5780601f10611c2257610100808354040283529160200191611c4b565b820191905f5260205f20905b815481529060010190602001808311611c2e57829003601f168201915b50505050508152602001600282018054611c6490613238565b80601f0160208091040260200160405190810160405280929190818152602001828054611c9090613238565b8015611cdb5780601f10611cb257610100808354040283529160200191611cdb565b820191905f5260205f20905b815481529060010190602001808311611cbe57829003601f168201915b505050505081525050905090565b5f7f01ffc9a7000000000000000000000000000000000000000000000000000000007bffffffffffffffffffffffffffffffffffffffffffffffffffffffff1916827bffffffffffffffffffffffffffffffffffffffffffffffffffffffff1916149050919050565b5f5f611d5d83612587565b90505f73ffffffffffffffffffffffffffffffffffffffff168173ffffffffffffffffffffffffffffffffffffffff1603611dcf57826040517f7e273289000000000000000000000000000000000000000000000000000000008152600401611dc69190612c00565b60405180910390fd5b80915050919050565b5f60045f8381526020019081526020015f205f9054906101000a900473ffffffffffffffffffffffffffffffffffffffff169050919050565b5f33905090565b611e2583838360016125c0565b505050565b5f5f611e3584612587565b90505f73ffffffffffffffffffffffffffffffffffffffff168373ffffffffffffffffffffffffffffffffffffffff1614611e7657611e7581848661277f565b5b5f73ffffffffffffffffffffffffffffffffffffffff168173ffffffffffffffffffffffffffffffffffffffff1614611f0157611eb55f855f5f6125c0565b600160035f8373ffffffffffffffffffffffffffffffffffffffff1673ffffffffffffffffffffffffffffffffffffffff1681526020019081526020015f205f82825403925050819055505b5f73ffffffffffffffffffffffffffffffffffffffff168573ffffffffffffffffffffffffffffffffffffffff1614611f8057600160035f8773ffffffffffffffffffffffffffffffffffffffff1673ffffffffffffffffffffffffffffffffffffffff1681526020019081526020015f205f82825401925050819055505b8460025f8681526020019081526020015f205f6101000a81548173ffffffffffffffffffffffffffffffffffffffff021916908373ffffffffffffffffffffffffffffffffffffffff160217905550838573ffffffffffffffffffffffffffffffffffffffff168273ffffffffffffffffffffffffffffffffffffffff167fddf252ad1be2c89b69c2b068fc378daa952ba7f163c4a11628f55a4df523b3ef60405160405180910390a4809150509392505050565b5f73ffffffffffffffffffffffffffffffffffffffff168273ffffffffffffffffffffffffffffffffffffffff16036120a5575f6040517f64a0ae9200000000000000000000000000000000000000000000000000000000815260040161209c9190612b70565b60405180910390fd5b5f6120b183835f611e2a565b90505f73ffffffffffffffffffffffffffffffffffffffff168173ffffffffffffffffffffffffffffffffffffffff1614612123575f6040517f73c6ac6e00000000000000000000000000000000000000000000000000000000815260040161211a9190612b70565b60405180910390fd5b505050565b612130611e11565b73ffffffffffffffffffffffffffffffffffffffff1661214e610ed1565b73ffffffffffffffffffffffffffffffffffffffff16146121ad57612171611e11565b6040517f118cdaa70000000000000000000000000000000000000000000000000000000081526004016121a49190612b70565b60405180910390fd5b565b5f60065f9054906101000a900473ffffffffffffffffffffffffffffffffffffffff1690508160065f6101000a81548173ffffffffffffffffffffffffffffffffffffffff021916908373ffffffffffffffffffffffffffffffffffffffff1602179055508173ffffffffffffffffffffffffffffffffffffffff168173ffffffffffffffffffffffffffffffffffffffff167f8be0079c531659141344cd1fd0a4f28419497f9722a3daafe3b4186f6b6457e060405160405180910390a35050565b5f73ffffffffffffffffffffffffffffffffffffffff168273ffffffffffffffffffffffffffffffffffffffff16036122e257816040517f5b08ba180000000000000000000000000000000000000000000000000000000081526004016122d99190612b70565b60405180910390fd5b8060055f8573ffffffffffffffffffffffffffffffffffffffff1673ffffffffffffffffffffffffffffffffffffffff1681526020019081526020015f205f8473ffffffffffffffffffffffffffffffffffffffff1673ffffffffffffffffffffffffffffffffffffffff1681526020019081526020015f205f6101000a81548160ff0219169083151502179055508173ffffffffffffffffffffffffffffffffffffffff168373ffffffffffffffffffffffffffffffffffffffff167f17307eab39ab6107e8899845ad3d59bd9653f200f220920489ca2b5937696c31836040516123ce9190612a2a565b60405180910390a3505050565b5f8373ffffffffffffffffffffffffffffffffffffffff163b1115612580578273ffffffffffffffffffffffffffffffffffffffff1663150b7a02868685856040518563ffffffff1660e01b81526004016124399493929190613557565b6020604051808303815f875af192505050801561247457506040513d601f19601f8201168201806040525081019061247191906135b5565b60015b6124f5573d805f81146124a2576040519150601f19603f3d011682016040523d82523d5f602084013e6124a7565b606091505b505f8151036124ed57836040517f64a0ae920000000000000000000000000000000000000000000000000000000081526004016124e49190612b70565b60405180910390fd5b805160208201fd5b63150b7a0260e01b7bffffffffffffffffffffffffffffffffffffffffffffffffffffffff1916817bffffffffffffffffffffffffffffffffffffffffffffffffffffffff19161461257e57836040517f64a0ae920000000000000000000000000000000000000000000000000000000081526004016125759190612b70565b60405180910390fd5b505b5050505050565b5f60025f8381526020019081526020015f205f9054906101000a900473ffffffffffffffffffffffffffffffffffffffff169050919050565b80806125f857505f73ffffffffffffffffffffffffffffffffffffffff168273ffffffffffffffffffffffffffffffffffffffff1614155b1561272a575f61260784611d52565b90505f73ffffffffffffffffffffffffffffffffffffffff168373ffffffffffffffffffffffffffffffffffffffff161415801561267157508273ffffffffffffffffffffffffffffffffffffffff168173ffffffffffffffffffffffffffffffffffffffff1614155b8015612684575061268281846117de565b155b156126c657826040517fa9fbf51f0000000000000000000000000000000000000000000000000000000081526004016126bd9190612b70565b60405180910390fd5b811561272857838573ffffffffffffffffffffffffffffffffffffffff168273ffffffffffffffffffffffffffffffffffffffff167f8c5be1e5ebec7d5bd14f71427d1e84f3dd0314c0f7b2291e5b200ac8c7c3b92560405160405180910390a45b505b8360045f8581526020019081526020015f205f6101000a81548173ffffffffffffffffffffffffffffffffffffffff021916908373ffffffffffffffffffffffffffffffffffffffff16021790555050505050565b61278a838383612842565b61283d575f73ffffffffffffffffffffffffffffffffffffffff168373ffffffffffffffffffffffffffffffffffffffff16036127fe57806040517f7e2732890000000000000000000000000000000000000000000000000000000081526004016127f59190612c00565b60405180910390fd5b81816040517f177e802f0000000000000000000000000000000000000000000000000000000081526004016128349291906135e0565b60405180910390fd5b505050565b5f5f73ffffffffffffffffffffffffffffffffffffffff168373ffffffffffffffffffffffffffffffffffffffff16141580156128f957508273ffffffffffffffffffffffffffffffffffffffff168473ffffffffffffffffffffffffffffffffffffffff1614806128ba57506128b984846117de565b5b806128f857508273ffffffffffffffffffffffffffffffffffffffff166128e083611dd8565b73ffffffffffffffffffffffffffffffffffffffff16145b5b90509392505050565b604051806040016040528060608152602001606081525090565b60405180606001604052806060815260200160608152602001606081525090565b60405180606001604052806060815260200160608152602001606081525090565b60405180606001604052806060815260200160608152602001606081525090565b5f604051905090565b5f5ffd5b5f5ffd5b5f7fffffffff0000000000000000000000000000000000000000000000000000000082169050919050565b6129c481612990565b81146129ce575f5ffd5b50565b5f813590506129df816129bb565b92915050565b5f602082840312156129fa576129f9612988565b5b5f612a07848285016129d1565b91505092915050565b5f8115159050919050565b612a2481612a10565b82525050565b5f602082019050612a3d5f830184612a1b565b92915050565b5f81519050919050565b5f82825260208201905092915050565b8281835e5f83830152505050565b5f601f19601f8301169050919050565b5f612a8582612a43565b612a8f8185612a4d565b9350612a9f818560208601612a5d565b612aa881612a6b565b840191505092915050565b5f6020820190508181035f830152612acb8184612a7b565b905092915050565b5f819050919050565b612ae581612ad3565b8114612aef575f5ffd5b50565b5f81359050612b0081612adc565b92915050565b5f60208284031215612b1b57612b1a612988565b5b5f612b2884828501612af2565b91505092915050565b5f73ffffffffffffffffffffffffffffffffffffffff82169050919050565b5f612b5a82612b31565b9050919050565b612b6a81612b50565b82525050565b5f602082019050612b835f830184612b61565b92915050565b612b9281612b50565b8114612b9c575f5ffd5b50565b5f81359050612bad81612b89565b92915050565b5f5f60408385031215612bc957612bc8612988565b5b5f612bd685828601612b9f565b9250506020612be785828601612af2565b9150509250929050565b612bfa81612ad3565b82525050565b5f602082019050612c135f830184612bf1565b92915050565b5f5f5f60608486031215612c3057612c2f612988565b5b5f612c3d86828701612b9f565b9350506020612c4e86828701612b9f565b9250506040612c5f86828701612af2565b9150509250925092565b5f82825260208201905092915050565b5f612c8382612a43565b612c8d8185612c69565b9350612c9d818560208601612a5d565b612ca681612a6b565b840191505092915050565b5f604083015f8301518482035f860152612ccb8282612c79565b91505060208301518482036020860152612ce58282612c79565b9150508091505092915050565b5f6020820190508181035f830152612d0a8184612cb1565b905092915050565b5f60208284031215612d2757612d26612988565b5b5f612d3484828501612b9f565b91505092915050565b5f6060820190508181035f830152612d558186612a7b565b90508181036020830152612d698185612a7b565b90508181036040830152612d7d8184612a7b565b9050949350505050565b5f6040820190508181035f830152612d9f8185612a7b565b90508181036020830152612db38184612a7b565b90509392505050565b5f606083015f8301518482035f860152612dd68282612c79565b91505060208301518482036020860152612df08282612c79565b91505060408301518482036040860152612e0a8282612c79565b9150508091505092915050565b5f6020820190508181035f830152612e2f8184612dbc565b905092915050565b612e4081612a10565b8114612e4a575f5ffd5b50565b5f81359050612e5b81612e37565b92915050565b5f5f60408385031215612e7757612e76612988565b5b5f612e8485828601612b9f565b9250506020612e9585828601612e4d565b9150509250929050565b5f5ffd5b5f5ffd5b7f4e487b71000000000000000000000000000000000000000000000000000000005f52604160045260245ffd5b612edd82612a6b565b810181811067ffffffffffffffff82111715612efc57612efb612ea7565b5b80604052505050565b5f612f0e61297f565b9050612f1a8282612ed4565b919050565b5f67ffffffffffffffff821115612f3957612f38612ea7565b5b612f4282612a6b565b9050602081019050919050565b828183375f83830152505050565b5f612f6f612f6a84612f1f565b612f05565b905082815260208101848484011115612f8b57612f8a612ea3565b5b612f96848285612f4f565b509392505050565b5f82601f830112612fb257612fb1612e9f565b5b8135612fc2848260208601612f5d565b91505092915050565b5f5f5f5f60808587031215612fe357612fe2612988565b5b5f612ff087828801612b9f565b945050602061300187828801612b9f565b935050604061301287828801612af2565b925050606085013567ffffffffffffffff8111156130335761303261298c565b5b61303f87828801612f9e565b91505092959194509250565b7f4e487b71000000000000000000000000000000000000000000000000000000005f52602160045260245ffd5b600481106130895761308861304b565b5b50565b5f81905061309982613078565b919050565b5f6130a88261308c565b9050919050565b6130b88161309e565b82525050565b5f6020820190506130d15f8301846130af565b92915050565b5f606083015f8301518482035f8601526130f18282612c79565b9150506020830151848203602086015261310b8282612c79565b915050604083015184820360408601526131258282612c79565b9150508091505092915050565b5f6020820190508181035f83015261314a81846130d7565b905092915050565b5f5f6040838503121561316857613167612988565b5b5f61317585828601612b9f565b925050602061318685828601612b9f565b9150509250929050565b5f606083015f8301518482035f8601526131aa8282612c79565b915050602083015184820360208601526131c48282612c79565b915050604083015184820360408601526131de8282612c79565b9150508091505092915050565b5f6020820190508181035f8301526132038184613190565b905092915050565b7f4e487b71000000000000000000000000000000000000000000000000000000005f52602260045260245ffd5b5f600282049050600182168061324f57607f821691505b6020821081036132625761326161320b565b5b50919050565b5f60608201905061327b5f830186612b61565b6132886020830185612bf1565b6132956040830184612b61565b949350505050565b7f4e6f7420616e204177617264204e4654000000000000000000000000000000005f82015250565b5f6132d1601083612a4d565b91506132dc8261329d565b602082019050919050565b5f6020820190508181035f8301526132fe816132c5565b9050919050565b7f4f6e6c79206875622063616e2063616c6c20746869732066756e6374696f6e005f82015250565b5f613339601f83612a4d565b915061334482613305565b602082019050919050565b5f6020820190508181035f8301526133668161332d565b9050919050565b7f4e487b71000000000000000000000000000000000000000000000000000000005f52601160045260245ffd5b5f6133a482612ad3565b91506133af83612ad3565b92508282019050808211156133c7576133c661336d565b5b92915050565b7f4e6f742061204365727469666963617465204e465400000000000000000000005f82015250565b5f613401601583612a4d565b915061340c826133cd565b602082019050919050565b5f6020820190508181035f83015261342e816133f5565b9050919050565b7f4e6f74206120446567726565204e4654000000000000000000000000000000005f82015250565b5f613469601083612a4d565b915061347482613435565b602082019050919050565b5f6020820190508181035f8301526134968161345d565b9050919050565b7f4e6f742061204469706c6f6d61204e46540000000000000000000000000000005f82015250565b5f6134d1601183612a4d565b91506134dc8261349d565b602082019050919050565b5f6020820190508181035f8301526134fe816134c5565b9050919050565b5f81519050919050565b5f82825260208201905092915050565b5f61352982613505565b613533818561350f565b9350613543818560208601612a5d565b61354c81612a6b565b840191505092915050565b5f60808201905061356a5f830187612b61565b6135776020830186612b61565b6135846040830185612bf1565b8181036060830152613596818461351f565b905095945050505050565b5f815190506135af816129bb565b92915050565b5f602082840312156135ca576135c9612988565b5b5f6135d7848285016135a1565b91505092915050565b5f6040820190506135f35f830185612b61565b6136006020830184612bf1565b939250505056fea2646970667358221220f0f453f5f8963e6c24e4fe164ecd57750e56e269ab3863e991b5042e648bd58464736f6c634300081c0033a2646970667358221220b150926d311e312bb38abe87d593cfc2daba9a75f9555b9f34aa5b9dd5542bb564736f6c634300081c0033",
        "linkReferences": {}
    },
    "methodIdentifiers": {
        "authorizeIssuer(address)": "436693d5",
        "authorizedIssuers(address)": "f731fa0f",
        "createAwardNFT(string,string,string,string,string)": "ebc3057b",
        "createCertificateNFT(string,string,string,string,string,string)": "7662e3e5",
        "createDegreeNFT(string,string,string,string,string,string)": "c0a041d2",
        "createDiplomaNFT(string,string,string,string,string,string)": "29330083",
        "eduNFTs(address)": "65321927",
        "getNFTType(address)": "971349e3",
        "getTokenURI(address)": "61c028e7",
        "isEduNFT(address)": "699af713",
        "mintNFT(address,address,bool)": "98f32703",
        "owner()": "8da5cb5b",
        "renounceOwnership()": "715018a6",
        "revokeIssuer(address)": "00629679",
        "transferOwnership(address)": "f2fde38b"
    },
    "id": 31
}